{
  "_format": "hh-sol-artifact-1",
  "contractName": "CrowdFund",
  "sourceName": "contracts/CrowdFund.sol",
  "abi": [
    {
      "inputs": [],
      "stateMutability": "nonpayable",
      "type": "constructor"
    },
    {
      "anonymous": false,
      "inputs": [
        {
          "indexed": false,
          "internalType": "uint256",
          "name": "amount",
          "type": "uint256"
        },
        {
          "indexed": false,
          "internalType": "uint256",
          "name": "timestamp",
          "type": "uint256"
        }
      ],
      "name": "AmountWithdrawal",
      "type": "event"
    },
    {
      "anonymous": false,
      "inputs": [
        {
          "indexed": false,
          "internalType": "address",
          "name": "donor",
          "type": "address"
        },
        {
          "indexed": false,
          "internalType": "uint256",
          "name": "amount",
          "type": "uint256"
        }
      ],
      "name": "NewDonation",
      "type": "event"
    },
    {
      "anonymous": false,
      "inputs": [
        {
          "indexed": false,
          "internalType": "address",
          "name": "user",
          "type": "address"
        },
        {
          "indexed": false,
          "internalType": "uint256",
          "name": "timestamp",
          "type": "uint256"
        }
      ],
      "name": "RevokeWithdraw",
      "type": "event"
    },
    {
      "anonymous": false,
      "inputs": [
        {
          "indexed": false,
          "internalType": "address",
          "name": "user",
          "type": "address"
        },
        {
          "indexed": false,
          "internalType": "uint256",
          "name": "timestamp",
          "type": "uint256"
        }
      ],
      "name": "WithdrawAccess",
      "type": "event"
    },
    {
      "inputs": [
        {
          "internalType": "address",
          "name": "_user",
          "type": "address"
        }
      ],
      "name": "authorizeWithdraw",
      "outputs": [],
      "stateMutability": "nonpayable",
      "type": "function"
    },
    {
      "inputs": [
        {
          "internalType": "uint256",
          "name": "_amount",
          "type": "uint256"
        }
      ],
      "name": "donate",
      "outputs": [],
      "stateMutability": "payable",
      "type": "function"
    },
    {
      "inputs": [],
      "name": "getAllDonationDetails",
      "outputs": [
        {
          "internalType": "address[]",
          "name": "",
          "type": "address[]"
        },
        {
          "components": [
            {
              "internalType": "uint256",
              "name": "amount",
              "type": "uint256"
            },
            {
              "internalType": "uint256",
              "name": "timestamp",
              "type": "uint256"
            }
          ],
          "internalType": "struct CrowdFund.Donate[]",
          "name": "",
          "type": "tuple[]"
        }
      ],
      "stateMutability": "view",
      "type": "function"
    },
    {
      "inputs": [],
      "name": "getDonationDetail",
      "outputs": [
        {
          "components": [
            {
              "internalType": "uint256",
              "name": "amount",
              "type": "uint256"
            },
            {
              "internalType": "uint256",
              "name": "timestamp",
              "type": "uint256"
            }
          ],
          "internalType": "struct CrowdFund.Donate[]",
          "name": "",
          "type": "tuple[]"
        }
      ],
      "stateMutability": "view",
      "type": "function"
    },
    {
      "inputs": [],
      "name": "owner",
      "outputs": [
        {
          "internalType": "address",
          "name": "",
          "type": "address"
        }
      ],
      "stateMutability": "view",
      "type": "function"
    },
    {
      "inputs": [
        {
          "internalType": "address",
          "name": "_user",
          "type": "address"
        }
      ],
      "name": "revokeWithdraw",
      "outputs": [],
      "stateMutability": "nonpayable",
      "type": "function"
    },
    {
      "inputs": [],
      "name": "withdraw",
      "outputs": [],
      "stateMutability": "nonpayable",
      "type": "function"
    }
  ],
  "bytecode": "0x608060405234801561001057600080fd5b50336000806101000a81548173ffffffffffffffffffffffffffffffffffffffff021916908373ffffffffffffffffffffffffffffffffffffffff160217905550610eaf806100606000396000f3fe6080604052600436106100705760003560e01c80634e439fcd1161004e5780634e439fcd146100e05780636c5e667b1461010c5780638da5cb5b14610135578063f14faf6f1461016057610070565b806307796a35146100755780633ccfd60b1461009e5780634dd80688146100b5575b600080fd5b34801561008157600080fd5b5061009c6004803603810190610097919061095b565b61017c565b005b3480156100aa57600080fd5b506100b3610210565b005b3480156100c157600080fd5b506100ca6103bd565b6040516100d79190610a7f565b60405180910390f35b3480156100ec57600080fd5b506100f561046d565b604051610103929190610b5f565b60405180910390f35b34801561011857600080fd5b50610133600480360381019061012e919061095b565b6106ab565b005b34801561014157600080fd5b5061014a61073f565b6040516101579190610ba5565b60405180910390f35b61017a60048036038101906101759190610bec565b610763565b005b6000600360008373ffffffffffffffffffffffffffffffffffffffff1673ffffffffffffffffffffffffffffffffffffffff16815260200190815260200160002060006101000a81548160ff0219169083151502179055507f27fcf48577770dd1a5924a131c4d84255f18896af116a5feebce4d0e1954c7078142604051610205929190610c28565b60405180910390a150565b600360003373ffffffffffffffffffffffffffffffffffffffff1673ffffffffffffffffffffffffffffffffffffffff16815260200190815260200160002060009054906101000a900460ff16806102b3575060008054906101000a900473ffffffffffffffffffffffffffffffffffffffff1673ffffffffffffffffffffffffffffffffffffffff163373ffffffffffffffffffffffffffffffffffffffff16145b6102f2576040517f08c379a00000000000000000000000000000000000000000000000000000000081526004016102e990610cd4565b60405180910390fd5b60004790506000811161033a576040517f08c379a000000000000000000000000000000000000000000000000000000000815260040161033190610d40565b60405180910390fd5b3373ffffffffffffffffffffffffffffffffffffffff166108fc829081150290604051600060405180830381858888f19350505050158015610380573d6000803e3d6000fd5b507f0c5b6bbb4577e10b1aad4f371953d2cc7b3d70db1860d666859ec18f0490c8d681426040516103b2929190610d60565b60405180910390a150565b6060600260003373ffffffffffffffffffffffffffffffffffffffff1673ffffffffffffffffffffffffffffffffffffffff168152602001908152602001600020805480602002602001604051908101604052809291908181526020016000905b828210156104645783829060005260206000209060020201604051806040016040529081600082015481526020016001820154815250508152602001906001019061041e565b50505050905090565b6060806000600180549050905060008167ffffffffffffffff81111561049657610495610d89565b5b6040519080825280602002602001820160405280156104c45781602001602082028036833780820191505090505b50905060008267ffffffffffffffff8111156104e3576104e2610d89565b5b60405190808252806020026020018201604052801561051c57816020015b6105096108de565b8152602001906001900390816105015790505b50905060005b8381101561069d576001818154811061053e5761053d610db8565b5b9060005260206000200160009054906101000a900473ffffffffffffffffffffffffffffffffffffffff1683828151811061057c5761057b610db8565b5b602002602001019073ffffffffffffffffffffffffffffffffffffffff16908173ffffffffffffffffffffffffffffffffffffffff168152505060026000600183815481106105ce576105cd610db8565b5b9060005260206000200160009054906101000a900473ffffffffffffffffffffffffffffffffffffffff1673ffffffffffffffffffffffffffffffffffffffff1673ffffffffffffffffffffffffffffffffffffffff168152602001908152602001600020818154811061064557610644610db8565b5b90600052602060002090600202016040518060400160405290816000820154815260200160018201548152505082828151811061068557610684610db8565b5b60200260200101819052508080600101915050610522565b508181945094505050509091565b6001600360008373ffffffffffffffffffffffffffffffffffffffff1673ffffffffffffffffffffffffffffffffffffffff16815260200190815260200160002060006101000a81548160ff0219169083151502179055507f3b1de0812c3e2c45d0d6fa99e1152e3de01064a57f2ca0d2a11d8a612e68f31c8142604051610734929190610c28565b60405180910390a150565b60008054906101000a900473ffffffffffffffffffffffffffffffffffffffff1681565b600034116107a6576040517f08c379a000000000000000000000000000000000000000000000000000000000815260040161079d90610e59565b60405180910390fd5b60006040518060400160405280838152602001428152509050600260003373ffffffffffffffffffffffffffffffffffffffff1673ffffffffffffffffffffffffffffffffffffffff168152602001908152602001600020819080600181540180825580915050600190039060005260206000209060020201600090919091909150600082015181600001556020820151816001015550506001339080600181540180825580915050600190039060005260206000200160009091909190916101000a81548173ffffffffffffffffffffffffffffffffffffffff021916908373ffffffffffffffffffffffffffffffffffffffff1602179055507f0e04c8e83a5595ba6381972e5e9fe2926bb0a7439dace880c83ccc34b99c547733836040516108d2929190610c28565b60405180910390a15050565b604051806040016040528060008152602001600081525090565b600080fd5b600073ffffffffffffffffffffffffffffffffffffffff82169050919050565b6000610928826108fd565b9050919050565b6109388161091d565b811461094357600080fd5b50565b6000813590506109558161092f565b92915050565b600060208284031215610971576109706108f8565b5b600061097f84828501610946565b91505092915050565b600081519050919050565b600082825260208201905092915050565b6000819050602082019050919050565b6000819050919050565b6109c7816109b4565b82525050565b6040820160008201516109e360008501826109be565b5060208201516109f660208501826109be565b50505050565b6000610a0883836109cd565b60408301905092915050565b6000602082019050919050565b6000610a2c82610988565b610a368185610993565b9350610a41836109a4565b8060005b83811015610a72578151610a5988826109fc565b9750610a6483610a14565b925050600181019050610a45565b5085935050505092915050565b60006020820190508181036000830152610a998184610a21565b905092915050565b600081519050919050565b600082825260208201905092915050565b6000819050602082019050919050565b610ad68161091d565b82525050565b6000610ae88383610acd565b60208301905092915050565b6000602082019050919050565b6000610b0c82610aa1565b610b168185610aac565b9350610b2183610abd565b8060005b83811015610b52578151610b398882610adc565b9750610b4483610af4565b925050600181019050610b25565b5085935050505092915050565b60006040820190508181036000830152610b798185610b01565b90508181036020830152610b8d8184610a21565b90509392505050565b610b9f8161091d565b82525050565b6000602082019050610bba6000830184610b96565b92915050565b610bc9816109b4565b8114610bd457600080fd5b50565b600081359050610be681610bc0565b92915050565b600060208284031215610c0257610c016108f8565b5b6000610c1084828501610bd7565b91505092915050565b610c22816109b4565b82525050565b6000604082019050610c3d6000830185610b96565b610c4a6020830184610c19565b9392505050565b600082825260208201905092915050565b7f4f6e6c792061646d696e732063616e2061636365737320746869732066756e6360008201527f74696f6e00000000000000000000000000000000000000000000000000000000602082015250565b6000610cbe602483610c51565b9150610cc982610c62565b604082019050919050565b60006020820190508181036000830152610ced81610cb1565b9050919050565b7f436f6e74726163742062616c616e6365206973207a65726f0000000000000000600082015250565b6000610d2a601883610c51565b9150610d3582610cf4565b602082019050919050565b60006020820190508181036000830152610d5981610d1d565b9050919050565b6000604082019050610d756000830185610c19565b610d826020830184610c19565b9392505050565b7f4e487b7100000000000000000000000000000000000000000000000000000000600052604160045260246000fd5b7f4e487b7100000000000000000000000000000000000000000000000000000000600052603260045260246000fd5b7f446f6e6174696f6e20616d6f756e74206d75737420626520677265617465722060008201527f7468616e20300000000000000000000000000000000000000000000000000000602082015250565b6000610e43602683610c51565b9150610e4e82610de7565b604082019050919050565b60006020820190508181036000830152610e7281610e36565b905091905056fea2646970667358221220fc8b39ee0d49537433641637f379ed3ba6542c03ba72da830206623f8ded706c64736f6c63430008180033",
  "linkReferences": {},
  "deployedLinkReferences": {}
}