{
  "_format": "hh-sol-artifact-1",
  "contractName": "CrowdFund",
  "sourceName": "contracts/CrowdFund.sol",
  "abi": [
    {
      "inputs": [],
      "stateMutability": "nonpayable",
      "type": "constructor"
    },
    {
      "anonymous": false,
      "inputs": [
        {
          "indexed": false,
          "internalType": "address",
          "name": "donor",
          "type": "address"
        },
        {
          "indexed": false,
          "internalType": "uint256",
          "name": "amount",
          "type": "uint256"
        }
      ],
      "name": "NewDonation",
      "type": "event"
    },
    {
      "anonymous": false,
      "inputs": [
        {
          "indexed": false,
          "internalType": "address",
          "name": "user",
          "type": "address"
        },
        {
          "indexed": false,
          "internalType": "uint256",
          "name": "timestamp",
          "type": "uint256"
        }
      ],
      "name": "WithdrawAccess",
      "type": "event"
    },
    {
      "inputs": [
        {
          "internalType": "address",
          "name": "_user",
          "type": "address"
        }
      ],
      "name": "authorizeWithdraw",
      "outputs": [],
      "stateMutability": "nonpayable",
      "type": "function"
    },
    {
      "inputs": [
        {
          "internalType": "uint256",
          "name": "_amount",
          "type": "uint256"
        }
      ],
      "name": "donate",
      "outputs": [],
      "stateMutability": "payable",
      "type": "function"
    },
    {
      "inputs": [],
      "name": "getAllDonationDetails",
      "outputs": [
        {
          "internalType": "address[]",
          "name": "",
          "type": "address[]"
        },
        {
          "components": [
            {
              "internalType": "uint256",
              "name": "amount",
              "type": "uint256"
            },
            {
              "internalType": "uint256",
              "name": "timestamp",
              "type": "uint256"
            }
          ],
          "internalType": "struct CrowdFund.Donate[]",
          "name": "",
          "type": "tuple[]"
        }
      ],
      "stateMutability": "view",
      "type": "function"
    },
    {
      "inputs": [],
      "name": "getDonationDetail",
      "outputs": [
        {
          "components": [
            {
              "internalType": "uint256",
              "name": "amount",
              "type": "uint256"
            },
            {
              "internalType": "uint256",
              "name": "timestamp",
              "type": "uint256"
            }
          ],
          "internalType": "struct CrowdFund.Donate[]",
          "name": "",
          "type": "tuple[]"
        }
      ],
      "stateMutability": "view",
      "type": "function"
    },
    {
      "inputs": [],
      "name": "owner",
      "outputs": [
        {
          "internalType": "address",
          "name": "",
          "type": "address"
        }
      ],
      "stateMutability": "view",
      "type": "function"
    },
    {
      "inputs": [
        {
          "internalType": "address",
          "name": "_user",
          "type": "address"
        }
      ],
      "name": "revokeWithdraw",
      "outputs": [],
      "stateMutability": "nonpayable",
      "type": "function"
    },
    {
      "inputs": [],
      "name": "withdraw",
      "outputs": [],
      "stateMutability": "nonpayable",
      "type": "function"
    }
  ],
  "bytecode": "0x608060405234801561001057600080fd5b50336000806101000a81548173ffffffffffffffffffffffffffffffffffffffff021916908373ffffffffffffffffffffffffffffffffffffffff160217905550610e14806100606000396000f3fe6080604052600436106100705760003560e01c80634e439fcd1161004e5780634e439fcd146100e05780636c5e667b1461010c5780638da5cb5b14610135578063f14faf6f1461016057610070565b806307796a35146100755780633ccfd60b1461009e5780634dd80688146100b5575b600080fd5b34801561008157600080fd5b5061009c600480360381019061009791906108e9565b61017c565b005b3480156100aa57600080fd5b506100b36101d7565b005b3480156100c157600080fd5b506100ca61034b565b6040516100d79190610a0d565b60405180910390f35b3480156100ec57600080fd5b506100f56103fb565b604051610103929190610aed565b60405180910390f35b34801561011857600080fd5b50610133600480360381019061012e91906108e9565b610639565b005b34801561014157600080fd5b5061014a6106cd565b6040516101579190610b33565b60405180910390f35b61017a60048036038101906101759190610b7a565b6106f1565b005b6000600360008373ffffffffffffffffffffffffffffffffffffffff1673ffffffffffffffffffffffffffffffffffffffff16815260200190815260200160002060006101000a81548160ff02191690831515021790555050565b600360003373ffffffffffffffffffffffffffffffffffffffff1673ffffffffffffffffffffffffffffffffffffffff16815260200190815260200160002060009054906101000a900460ff168061027a575060008054906101000a900473ffffffffffffffffffffffffffffffffffffffff1673ffffffffffffffffffffffffffffffffffffffff163373ffffffffffffffffffffffffffffffffffffffff16145b6102b9576040517f08c379a00000000000000000000000000000000000000000000000000000000081526004016102b090610c2a565b60405180910390fd5b600047905060008111610301576040517f08c379a00000000000000000000000000000000000000000000000000000000081526004016102f890610c96565b60405180910390fd5b3373ffffffffffffffffffffffffffffffffffffffff166108fc829081150290604051600060405180830381858888f19350505050158015610347573d6000803e3d6000fd5b5050565b6060600260003373ffffffffffffffffffffffffffffffffffffffff1673ffffffffffffffffffffffffffffffffffffffff168152602001908152602001600020805480602002602001604051908101604052809291908181526020016000905b828210156103f2578382906000526020600020906002020160405180604001604052908160008201548152602001600182015481525050815260200190600101906103ac565b50505050905090565b6060806000600180549050905060008167ffffffffffffffff81111561042457610423610cb6565b5b6040519080825280602002602001820160405280156104525781602001602082028036833780820191505090505b50905060008267ffffffffffffffff81111561047157610470610cb6565b5b6040519080825280602002602001820160405280156104aa57816020015b61049761086c565b81526020019060019003908161048f5790505b50905060005b8381101561062b57600181815481106104cc576104cb610ce5565b5b9060005260206000200160009054906101000a900473ffffffffffffffffffffffffffffffffffffffff1683828151811061050a57610509610ce5565b5b602002602001019073ffffffffffffffffffffffffffffffffffffffff16908173ffffffffffffffffffffffffffffffffffffffff1681525050600260006001838154811061055c5761055b610ce5565b5b9060005260206000200160009054906101000a900473ffffffffffffffffffffffffffffffffffffffff1673ffffffffffffffffffffffffffffffffffffffff1673ffffffffffffffffffffffffffffffffffffffff16815260200190815260200160002081815481106105d3576105d2610ce5565b5b90600052602060002090600202016040518060400160405290816000820154815260200160018201548152505082828151811061061357610612610ce5565b5b602002602001018190525080806001019150506104b0565b508181945094505050509091565b6001600360008373ffffffffffffffffffffffffffffffffffffffff1673ffffffffffffffffffffffffffffffffffffffff16815260200190815260200160002060006101000a81548160ff0219169083151502179055507f3b1de0812c3e2c45d0d6fa99e1152e3de01064a57f2ca0d2a11d8a612e68f31c81426040516106c2929190610d23565b60405180910390a150565b60008054906101000a900473ffffffffffffffffffffffffffffffffffffffff1681565b60003411610734576040517f08c379a000000000000000000000000000000000000000000000000000000000815260040161072b90610dbe565b60405180910390fd5b60006040518060400160405280838152602001428152509050600260003373ffffffffffffffffffffffffffffffffffffffff1673ffffffffffffffffffffffffffffffffffffffff168152602001908152602001600020819080600181540180825580915050600190039060005260206000209060020201600090919091909150600082015181600001556020820151816001015550506001339080600181540180825580915050600190039060005260206000200160009091909190916101000a81548173ffffffffffffffffffffffffffffffffffffffff021916908373ffffffffffffffffffffffffffffffffffffffff1602179055507f0e04c8e83a5595ba6381972e5e9fe2926bb0a7439dace880c83ccc34b99c54773383604051610860929190610d23565b60405180910390a15050565b604051806040016040528060008152602001600081525090565b600080fd5b600073ffffffffffffffffffffffffffffffffffffffff82169050919050565b60006108b68261088b565b9050919050565b6108c6816108ab565b81146108d157600080fd5b50565b6000813590506108e3816108bd565b92915050565b6000602082840312156108ff576108fe610886565b5b600061090d848285016108d4565b91505092915050565b600081519050919050565b600082825260208201905092915050565b6000819050602082019050919050565b6000819050919050565b61095581610942565b82525050565b604082016000820151610971600085018261094c565b506020820151610984602085018261094c565b50505050565b6000610996838361095b565b60408301905092915050565b6000602082019050919050565b60006109ba82610916565b6109c48185610921565b93506109cf83610932565b8060005b83811015610a005781516109e7888261098a565b97506109f2836109a2565b9250506001810190506109d3565b5085935050505092915050565b60006020820190508181036000830152610a2781846109af565b905092915050565b600081519050919050565b600082825260208201905092915050565b6000819050602082019050919050565b610a64816108ab565b82525050565b6000610a768383610a5b565b60208301905092915050565b6000602082019050919050565b6000610a9a82610a2f565b610aa48185610a3a565b9350610aaf83610a4b565b8060005b83811015610ae0578151610ac78882610a6a565b9750610ad283610a82565b925050600181019050610ab3565b5085935050505092915050565b60006040820190508181036000830152610b078185610a8f565b90508181036020830152610b1b81846109af565b90509392505050565b610b2d816108ab565b82525050565b6000602082019050610b486000830184610b24565b92915050565b610b5781610942565b8114610b6257600080fd5b50565b600081359050610b7481610b4e565b92915050565b600060208284031215610b9057610b8f610886565b5b6000610b9e84828501610b65565b91505092915050565b600082825260208201905092915050565b7f4f6e6c792061646d696e732063616e2061636365737320746869732066756e6360008201527f74696f6e00000000000000000000000000000000000000000000000000000000602082015250565b6000610c14602483610ba7565b9150610c1f82610bb8565b604082019050919050565b60006020820190508181036000830152610c4381610c07565b9050919050565b7f436f6e74726163742062616c616e6365206973207a65726f0000000000000000600082015250565b6000610c80601883610ba7565b9150610c8b82610c4a565b602082019050919050565b60006020820190508181036000830152610caf81610c73565b9050919050565b7f4e487b7100000000000000000000000000000000000000000000000000000000600052604160045260246000fd5b7f4e487b7100000000000000000000000000000000000000000000000000000000600052603260045260246000fd5b610d1d81610942565b82525050565b6000604082019050610d386000830185610b24565b610d456020830184610d14565b9392505050565b7f446f6e6174696f6e20616d6f756e74206d75737420626520677265617465722060008201527f7468616e20300000000000000000000000000000000000000000000000000000602082015250565b6000610da8602683610ba7565b9150610db382610d4c565b604082019050919050565b60006020820190508181036000830152610dd781610d9b565b905091905056fea2646970667358221220d50aa7516ca487346bacdf08c43fe299014cffa81086d8986579789347f3156564736f6c63430008180033",
  "linkReferences": {},
  "deployedLinkReferences": {}
}